:020000000000FE
:020001000001FC
:020002000002FA
:020003000003F8
:020004000004F6
:020005000005F4
:020006000006F2
:020007000007F0
:020008000008EE
:020009000009EC
:02000A00000AEA
:02000B00000BE8
:02000C00000CE6
:02000D00000DE4
:02000E00000EE2
:02000F00000FE0
:020010000010DE
:020011000011DC
:020012000012DA
:020013000013D8
:020014000014D6
:020015000015D4
:020016000016D2
:020017000017D0
:020018000018CE
:020019000019CC
:02001A00001ACA
:02001B00001BC8
:02001C00001CC6
:02001D00001DC4
:02001E00001EC2
:02001F00001FC0
:020020000020BE
:020021000021BC
:020022000022BA
:020023000023B8
:020024000024B6
:020025000025B4
:020026000026B2
:020027000027B0
:020028000028AE
:020029000029AC
:02002A00002AAA
:02002B00002BA8
:02002C00002CA6
:02002D00002DA4
:02002E00002EA2
:02002F00002FA0
:0200300000309E
:0200310000319C
:0200320000329A
:02003300003398
:02003400003496
:02003500003594
:02003600003692
:02003700003790
:0200380000388E
:0200390000398C
:02003A00003A8A
:02003B00003B88
:02003C00003C86
:02003D00003D84
:02003E00003E82
:02003F00003F80
:0200400000407E
:0200410000417C
:0200420000427A
:02004300004378
:02004400004476
:02004500004574
:02004600004672
:02004700004770
:0200480000486E
:0200490000496C
:02004A00004A6A
:02004B00004B68
:02004C00004C66
:02004D00004D64
:02004E00004E62
:02004F00004F60
:0200500000505E
:0200510000515C
:0200520000525A
:02005300005358
:02005400005456
:02005500005554
:02005600005652
:02005700005750
:0200580000584E
:0200590000594C
:02005A00005A4A
:02005B00005B48
:02005C00005C46
:02005D00005D44
:02005E00005E42
:02005F00005F40
:0200600000603E
:0200610000613C
:0200620000623A
:02006300006338
:02006400006436
:02006500006534
:02006600006632
:02006700006730
:0200680000682E
:0200690000692C
:02006A00006A2A
:02006B00006B28
:02006C00006C26
:02006D00006D24
:02006E00006E22
:02006F00006F20
:0200700000701E
:0200710000711C
:0200720000721A
:02007300007318
:02007400007416
:02007500007514
:02007600007612
:02007700007710
:0200780000780E
:0200790000790C
:02007A00007A0A
:02007B00007B08
:02007C00007C06
:02007D00007D04
:02007E00007E02
:02007F00007F00
:020080000080FE
:020081000081FC
:020082000082FA
:020083000083F8
:020084000084F6
:020085000085F4
:020086000086F2
:020087000087F0
:020088000088EE
:020089000089EC
:02008A00008AEA
:02008B00008BE8
:02008C00008CE6
:02008D00008DE4
:02008E00008EE2
:02008F00008FE0
:020090000090DE
:020091000091DC
:020092000092DA
:020093000093D8
:020094000094D6
:020095000095D4
:020096000096D2
:020097000097D0
:020098000098CE
:020099000099CC
:02009A00009ACA
:02009B00009BC8
:02009C00009CC6
:02009D00009DC4
:02009E00009EC2
:02009F00009FC0
:0200A00000A0BE
:0200A10000A1BC
:0200A20000A2BA
:0200A30000A3B8
:0200A40000A4B6
:0200A50000A5B4
:0200A60000A6B2
:0200A70000A7B0
:0200A80000A8AE
:0200A90000A9AC
:0200AA0000AAAA
:0200AB0000ABA8
:0200AC0000ACA6
:0200AD0000ADA4
:0200AE0000AEA2
:0200AF0000AFA0
:0200B00000B09E
:0200B10000B19C
:0200B20000B29A
:0200B30000B398
:0200B40000B496
:0200B50000B594
:0200B60000B692
:0200B70000B790
:0200B80000B88E
:0200B90000B98C
:0200BA0000BA8A
:0200BB0000BB88
:0200BC0000BC86
:0200BD0000BD84
:0200BE0000BE82
:0200BF0000BF80
:0200C00000C07E
:0200C10000C17C
:0200C20000C27A
:0200C30000C378
:0200C40000C476
:0200C50000C574
:0200C60000C672
:0200C70000C770
:0200C80000C86E
:0200C90000C96C
:0200CA0000CA6A
:0200CB0000CB68
:0200CC0000CC66
:0200CD0000CD64
:0200CE0000CE62
:0200CF0000CF60
:0200D00000D05E
:0200D10000D15C
:0200D20000D25A
:0200D30000D358
:0200D40000D456
:0200D50000D554
:0200D60000D652
:0200D70000D750
:0200D80000D84E
:0200D90000D94C
:0200DA0000DA4A
:0200DB0000DB48
:0200DC0000DC46
:0200DD0000DD44
:0200DE0000DE42
:0200DF0000DF40
:0200E00000E03E
:0200E10000E13C
:0200E20000E23A
:0200E30000E338
:0200E40000E436
:0200E50000E534
:0200E60000E632
:0200E70000E730
:0200E80000E82E
:0200E90000E92C
:0200EA0000EA2A
:0200EB0000EB28
:0200EC0000EC26
:0200ED0000ED24
:0200EE0000EE22
:0200EF0000EF20
:0200F00000F01E
:0200F10000F11C
:0200F20000F21A
:0200F30000F318
:0200F40000F416
:0200F50000F514
:0200F60000F612
:0200F70000F710
:0200F80000F80E
:0200F90000F90C
:0200FA0000FA0A
:0200FB0000FB08
:0200FC0000FC06
:0200FD0000FD04
:0200FE0000FE02
:0200FF0000FF00
:020100000100FC
:020101000101FA
:020102000102F8
:020103000103F6
:020104000104F4
:020105000105F2
:020106000106F0
:020107000107EE
:020108000108EC
:020109000109EA
:02010A00010AE8
:02010B00010BE6
:02010C00010CE4
:02010D00010DE2
:02010E00010EE0
:02010F00010FDE
:020110000110DC
:020111000111DA
:020112000112D8
:020113000113D6
:020114000114D4
:020115000115D2
:020116000116D0
:020117000117CE
:020118000118CC
:020119000119CA
:02011A00011AC8
:02011B00011BC6
:02011C00011CC4
:02011D00011DC2
:02011E00011EC0
:02011F00011FBE
:020120000120BC
:020121000121BA
:020122000122B8
:020123000123B6
:020124000124B4
:020125000125B2
:020126000126B0
:020127000127AE
:020128000128AC
:020129000129AA
:02012A00012AA8
:02012B00012BA6
:02012C00012CA4
:02012D00012DA2
:02012E00012EA0
:02012F00012F9E
:0201300001309C
:0201310001319A
:02013200013298
:02013300013396
:02013400013494
:02013500013592
:02013600013690
:0201370001378E
:0201380001388C
:0201390001398A
:02013A00013A88
:02013B00013B86
:02013C00013C84
:02013D00013D82
:02013E00013E80
:02013F00013F7E
:0201400001407C
:0201410001417A
:02014200014278
:02014300014376
:02014400014474
:02014500014572
:02014600014670
:0201470001476E
:0201480001486C
:0201490001496A
:02014A00014A68
:02014B00014B66
:02014C00014C64
:02014D00014D62
:02014E00014E60
:02014F00014F5E
:0201500001505C
:0201510001515A
:02015200015258
:02015300015356
:02015400015454
:02015500015552
:02015600015650
:0201570001574E
:0201580001584C
:0201590001594A
:02015A00015A48
:02015B00015B46
:02015C00015C44
:02015D00015D42
:02015E00015E40
:02015F00015F3E
:0201600001603C
:0201610001613A
:02016200016238
:02016300016336
:02016400016434
:02016500016532
:02016600016630
:0201670001672E
:0201680001682C
:0201690001692A
:02016A00016A28
:02016B00016B26
:02016C00016C24
:02016D00016D22
:02016E00016E20
:02016F00016F1E
:0201700001701C
:0201710001711A
:02017200017218
:02017300017316
:02017400017414
:02017500017512
:02017600017610
:0201770001770E
:0201780001780C
:0201790001790A
:02017A00017A08
:02017B00017B06
:02017C00017C04
:02017D00017D02
:02017E00017E00
:02017F00017FFE
:020180000180FC
:020181000181FA
:020182000182F8
:020183000183F6
:020184000184F4
:020185000185F2
:020186000186F0
:020187000187EE
:020188000188EC
:020189000189EA
:02018A00018AE8
:02018B00018BE6
:02018C00018CE4
:02018D00018DE2
:02018E00018EE0
:02018F00018FDE
:020190000190DC
:020191000191DA
:020192000192D8
:020193000193D6
:020194000194D4
:020195000195D2
:020196000196D0
:020197000197CE
:020198000198CC
:020199000199CA
:02019A00019AC8
:02019B00019BC6
:02019C00019CC4
:02019D00019DC2
:02019E00019EC0
:02019F00019FBE
:0201A00001A0BC
:0201A10001A1BA
:0201A20001A2B8
:0201A30001A3B6
:0201A40001A4B4
:0201A50001A5B2
:0201A60001A6B0
:0201A70001A7AE
:0201A80001A8AC
:0201A90001A9AA
:0201AA0001AAA8
:0201AB0001ABA6
:0201AC0001ACA4
:0201AD0001ADA2
:0201AE0001AEA0
:0201AF0001AF9E
:0201B00001B09C
:0201B10001B19A
:0201B20001B298
:0201B30001B396
:0201B40001B494
:0201B50001B592
:0201B60001B690
:0201B70001B78E
:0201B80001B88C
:0201B90001B98A
:0201BA0001BA88
:0201BB0001BB86
:0201BC0001BC84
:0201BD0001BD82
:0201BE0001BE80
:0201BF0001BF7E
:0201C00001C07C
:0201C10001C17A
:0201C20001C278
:0201C30001C376
:0201C40001C474
:0201C50001C572
:0201C60001C670
:0201C70001C76E
:0201C80001C86C
:0201C90001C96A
:0201CA0001CA68
:0201CB0001CB66
:0201CC0001CC64
:0201CD0001CD62
:0201CE0001CE60
:0201CF0001CF5E
:0201D00001D05C
:0201D10001D15A
:0201D20001D258
:0201D30001D356
:0201D40001D454
:0201D50001D552
:0201D60001D650
:0201D70001D74E
:0201D80001D84C
:0201D90001D94A
:0201DA0001DA48
:0201DB0001DB46
:0201DC0001DC44
:0201DD0001DD42
:0201DE0001DE40
:0201DF0001DF3E
:0201E00001E03C
:0201E10001E13A
:0201E20001E238
:0201E30001E336
:0201E40001E434
:0201E50001E532
:0201E60001E630
:0201E70001E72E
:0201E80001E82C
:0201E90001E92A
:0201EA0001EA28
:0201EB0001EB26
:0201EC0001EC24
:0201ED0001ED22
:0201EE0001EE20
:0201EF0001EF1E
:0201F00001F01C
:0201F10001F11A
:0201F20001F218
:0201F30001F316
:0201F40001F414
:0201F50001F512
:0201F60001F610
:0201F70001F70E
:0201F80001F80C
:0201F90001F90A
:0201FA0001FA08
:0201FB0001FB06
:0201FC0001FC04
:0201FD0001FD02
:0201FE0001FE00
:0201FF0001FFFE
:020200000200FA
:020201000201F8
:020202000202F6
:020203000203F4
:020204000204F2
:020205000205F0
:020206000206EE
:020207000207EC
:020208000208EA
:020209000209E8
:02020A00020AE6
:02020B00020BE4
:02020C00020CE2
:02020D00020DE0
:02020E00020EDE
:02020F00020FDC
:020210000210DA
:020211000211D8
:020212000212D6
:020213000213D4
:020214000214D2
:020215000215D0
:020216000216CE
:020217000217CC
:020218000218CA
:020219000219C8
:02021A00021AC6
:02021B00021BC4
:02021C00021CC2
:02021D00021DC0
:02021E00021EBE
:02021F00021FBC
:020220000220BA
:020221000221B8
:020222000222B6
:020223000223B4
:020224000224B2
:020225000225B0
:020226000226AE
:020227000227AC
:020228000228AA
:020229000229A8
:02022A00022AA6
:02022B00022BA4
:02022C00022CA2
:02022D00022DA0
:02022E00022E9E
:02022F00022F9C
:0202300002309A
:02023100023198
:02023200023296
:02023300023394
:02023400023492
:02023500023590
:0202360002368E
:0202370002378C
:0202380002388A
:02023900023988
:02023A00023A86
:02023B00023B84
:02023C00023C82
:02023D00023D80
:02023E00023E7E
:02023F00023F7C
:0202400002407A
:02024100024178
:02024200024276
:02024300024374
:02024400024472
:02024500024570
:0202460002466E
:0202470002476C
:0202480002486A
:02024900024968
:02024A00024A66
:02024B00024B64
:02024C00024C62
:02024D00024D60
:02024E00024E5E
:02024F00024F5C
:0202500002505A
:02025100025158
:02025200025256
:02025300025354
:02025400025452
:02025500025550
:0202560002564E
:0202570002574C
:0202580002584A
:02025900025948
:02025A00025A46
:02025B00025B44
:02025C00025C42
:02025D00025D40
:02025E00025E3E
:02025F00025F3C
:0202600002603A
:02026100026138
:02026200026236
:02026300026334
:02026400026432
:02026500026530
:0202660002662E
:0202670002672C
:0202680002682A
:02026900026928
:02026A00026A26
:02026B00026B24
:02026C00026C22
:02026D00026D20
:02026E00026E1E
:02026F00026F1C
:0202700002701A
:02027100027118
:02027200027216
:02027300027314
:02027400027412
:02027500027510
:0202760002760E
:0202770002770C
:0202780002780A
:02027900027908
:02027A00027A06
:02027B00027B04
:02027C00027C02
:02027D00027D00
:02027E00027EFE
:02027F00027FFC
:020280000280FA
:020281000281F8
:020282000282F6
:020283000283F4
:020284000284F2
:020285000285F0
:020286000286EE
:020287000287EC
:020288000288EA
:020289000289E8
:02028A00028AE6
:02028B00028BE4
:02028C00028CE2
:02028D00028DE0
:02028E00028EDE
:02028F00028FDC
:020290000290DA
:020291000291D8
:020292000292D6
:020293000293D4
:020294000294D2
:020295000295D0
:020296000296CE
:020297000297CC
:020298000298CA
:020299000299C8
:02029A00029AC6
:02029B00029BC4
:02029C00029CC2
:02029D00029DC0
:02029E00029EBE
:02029F00029FBC
:0202A00002A0BA
:0202A10002A1B8
:0202A20002A2B6
:0202A30002A3B4
:0202A40002A4B2
:0202A50002A5B0
:0202A60002A6AE
:0202A70002A7AC
:0202A80002A8AA
:0202A90002A9A8
:0202AA0002AAA6
:0202AB0002ABA4
:0202AC0002ACA2
:0202AD0002ADA0
:0202AE0002AE9E
:0202AF0002AF9C
:0202B00002B09A
:0202B10002B198
:0202B20002B296
:0202B30002B394
:0202B40002B492
:0202B50002B590
:0202B60002B68E
:0202B70002B78C
:0202B80002B88A
:0202B90002B988
:0202BA0002BA86
:0202BB0002BB84
:0202BC0002BC82
:0202BD0002BD80
:0202BE0002BE7E
:0202BF0002BF7C
:0202C00002C07A
:0202C10002C178
:0202C20002C276
:0202C30002C374
:0202C40002C472
:0202C50002C570
:0202C60002C66E
:0202C70002C76C
:0202C80002C86A
:0202C90002C968
:0202CA0002CA66
:0202CB0002CB64
:0202CC0002CC62
:0202CD0002CD60
:0202CE0002CE5E
:0202CF0002CF5C
:0202D00002D05A
:0202D10002D158
:0202D20002D256
:0202D30002D354
:0202D40002D452
:0202D50002D550
:0202D60002D64E
:0202D70002D74C
:0202D80002D84A
:0202D90002D948
:0202DA0002DA46
:0202DB0002DB44
:0202DC0002DC42
:0202DD0002DD40
:0202DE0002DE3E
:0202DF0002DF3C
:0202E00002E03A
:0202E10002E138
:0202E20002E236
:0202E30002E334
:0202E40002E432
:0202E50002E530
:0202E60002E62E
:0202E70002E72C
:0202E80002E82A
:0202E90002E928
:0202EA0002EA26
:0202EB0002EB24
:0202EC0002EC22
:0202ED0002ED20
:0202EE0002EE1E
:0202EF0002EF1C
:0202F00002F01A
:0202F10002F118
:0202F20002F216
:0202F30002F314
:0202F40002F412
:0202F50002F510
:0202F60002F60E
:0202F70002F70C
:0202F80002F80A
:0202F90002F908
:0202FA0002FA06
:0202FB0002FB04
:0202FC0002FC02
:0202FD0002FD00
:0202FE0002FEFE
:0202FF0002FFFC
:020300000300F8
:020301000301F6
:020302000302F4
:020303000303F2
:020304000304F0
:020305000305EE
:020306000306EC
:020307000307EA
:020308000308E8
:020309000309E6
:02030A00030AE4
:02030B00030BE2
:02030C00030CE0
:02030D00030DDE
:02030E00030EDC
:02030F00030FDA
:020310000310D8
:020311000311D6
:020312000312D4
:020313000313D2
:020314000314D0
:020315000315CE
:020316000316CC
:020317000317CA
:020318000318C8
:020319000319C6
:02031A00031AC4
:02031B00031BC2
:02031C00031CC0
:02031D00031DBE
:02031E00031EBC
:02031F00031FBA
:020320000320B8
:020321000321B6
:020322000322B4
:020323000323B2
:020324000324B0
:020325000325AE
:020326000326AC
:020327000327AA
:020328000328A8
:020329000329A6
:02032A00032AA4
:02032B00032BA2
:02032C00032CA0
:02032D00032D9E
:02032E00032E9C
:02032F00032F9A
:02033000033098
:02033100033196
:02033200033294
:02033300033392
:02033400033490
:0203350003358E
:0203360003368C
:0203370003378A
:02033800033888
:02033900033986
:02033A00033A84
:02033B00033B82
:02033C00033C80
:02033D00033D7E
:02033E00033E7C
:02033F00033F7A
:02034000034078
:02034100034176
:02034200034274
:02034300034372
:02034400034470
:0203450003456E
:0203460003466C
:0203470003476A
:02034800034868
:02034900034966
:02034A00034A64
:02034B00034B62
:02034C00034C60
:02034D00034D5E
:02034E00034E5C
:02034F00034F5A
:02035000035058
:02035100035156
:02035200035254
:02035300035352
:02035400035450
:0203550003554E
:0203560003564C
:0203570003574A
:02035800035848
:02035900035946
:02035A00035A44
:02035B00035B42
:02035C00035C40
:02035D00035D3E
:02035E00035E3C
:02035F00035F3A
:02036000036038
:02036100036136
:02036200036234
:02036300036332
:02036400036430
:0203650003652E
:0203660003662C
:0203670003672A
:02036800036828
:02036900036926
:02036A00036A24
:02036B00036B22
:02036C00036C20
:02036D00036D1E
:02036E00036E1C
:02036F00036F1A
:02037000037018
:02037100037116
:02037200037214
:02037300037312
:02037400037410
:0203750003750E
:0203760003760C
:0203770003770A
:02037800037808
:02037900037906
:02037A00037A04
:02037B00037B02
:02037C00037C00
:02037D00037DFE
:02037E00037EFC
:02037F00037FFA
:020380000380F8
:020381000381F6
:020382000382F4
:020383000383F2
:020384000384F0
:020385000385EE
:020386000386EC
:020387000387EA
:020388000388E8
:020389000389E6
:02038A00038AE4
:02038B00038BE2
:02038C00038CE0
:02038D00038DDE
:02038E00038EDC
:02038F00038FDA
:020390000390D8
:020391000391D6
:020392000392D4
:020393000393D2
:020394000394D0
:020395000395CE
:020396000396CC
:020397000397CA
:020398000398C8
:020399000399C6
:02039A00039AC4
:02039B00039BC2
:02039C00039CC0
:02039D00039DBE
:02039E00039EBC
:02039F00039FBA
:0203A00003A0B8
:0203A10003A1B6
:0203A20003A2B4
:0203A30003A3B2
:0203A40003A4B0
:0203A50003A5AE
:0203A60003A6AC
:0203A70003A7AA
:0203A80003A8A8
:0203A90003A9A6
:0203AA0003AAA4
:0203AB0003ABA2
:0203AC0003ACA0
:0203AD0003AD9E
:0203AE0003AE9C
:0203AF0003AF9A
:0203B00003B098
:0203B10003B196
:0203B20003B294
:0203B30003B392
:0203B40003B490
:0203B50003B58E
:0203B60003B68C
:0203B70003B78A
:0203B80003B888
:0203B90003B986
:0203BA0003BA84
:0203BB0003BB82
:0203BC0003BC80
:0203BD0003BD7E
:0203BE0003BE7C
:0203BF0003BF7A
:0203C00003C078
:0203C10003C176
:0203C20003C274
:0203C30003C372
:0203C40003C470
:0203C50003C56E
:0203C60003C66C
:0203C70003C76A
:0203C80003C868
:0203C90003C966
:0203CA0003CA64
:0203CB0003CB62
:0203CC0003CC60
:0203CD0003CD5E
:0203CE0003CE5C
:0203CF0003CF5A
:0203D00003D058
:0203D10003D156
:0203D20003D254
:0203D30003D352
:0203D40003D450
:0203D50003D54E
:0203D60003D64C
:0203D70003D74A
:0203D80003D848
:0203D90003D946
:0203DA0003DA44
:0203DB0003DB42
:0203DC0003DC40
:0203DD0003DD3E
:0203DE0003DE3C
:0203DF0003DF3A
:0203E00003E038
:0203E10003E136
:0203E20003E234
:0203E30003E332
:0203E40003E430
:0203E50003E52E
:0203E60003E62C
:0203E70003E72A
:0203E80003E828
:0203E90003E926
:0203EA0003EA24
:0203EB0003EB22
:0203EC0003EC20
:0203ED0003ED1E
:0203EE0003EE1C
:0203EF0003EF1A
:0203F00003F018
:0203F10003F116
:0203F20003F214
:0203F30003F312
:0203F40003F410
:0203F50003F50E
:0203F60003F60C
:0203F70003F70A
:0203F80003F808
:0203F90003F906
:0203FA0003FA04
:0203FB0003FB02
:0203FC0003FC00
:0203FD0003FDFE
:0203FE0003FEFC
:0203FF0003FFFA
:020400000400F6
:020401000401F4
:020402000402F2
:020403000403F0
:020404000404EE
:020405000405EC
:020406000406EA
:020407000407E8
:020408000408E6
:020409000409E4
:02040A00040AE2
:02040B00040BE0
:02040C00040CDE
:02040D00040DDC
:02040E00040EDA
:02040F00040FD8
:020410000410D6
:020411000411D4
:020412000412D2
:020413000413D0
:020414000414CE
:020415000415CC
:020416000416CA
:020417000417C8
:020418000418C6
:020419000419C4
:02041A00041AC2
:02041B00041BC0
:02041C00041CBE
:02041D00041DBC
:02041E00041EBA
:02041F00041FB8
:020420000420B6
:020421000421B4
:020422000422B2
:020423000423B0
:020424000424AE
:020425000425AC
:020426000426AA
:020427000427A8
:020428000428A6
:020429000429A4
:02042A00042AA2
:02042B00042BA0
:02042C00042C9E
:02042D00042D9C
:02042E00042E9A
:02042F00042F98
:02043000043096
:02043100043194
:02043200043292
:02043300043390
:0204340004348E
:0204350004358C
:0204360004368A
:02043700043788
:02043800043886
:02043900043984
:02043A00043A82
:02043B00043B80
:02043C00043C7E
:02043D00043D7C
:02043E00043E7A
:02043F00043F78
:02044000044076
:02044100044174
:02044200044272
:02044300044370
:0204440004446E
:0204450004456C
:0204460004466A
:02044700044768
:02044800044866
:02044900044964
:02044A00044A62
:02044B00044B60
:02044C00044C5E
:02044D00044D5C
:02044E00044E5A
:02044F00044F58
:02045000045056
:02045100045154
:02045200045252
:02045300045350
:0204540004544E
:0204550004554C
:0204560004564A
:02045700045748
:02045800045846
:02045900045944
:02045A00045A42
:02045B00045B40
:02045C00045C3E
:02045D00045D3C
:02045E00045E3A
:02045F00045F38
:02046000046036
:02046100046134
:02046200046232
:02046300046330
:0204640004642E
:0204650004652C
:0204660004662A
:02046700046728
:02046800046826
:02046900046924
:02046A00046A22
:02046B00046B20
:02046C00046C1E
:02046D00046D1C
:02046E00046E1A
:02046F00046F18
:02047000047016
:02047100047114
:02047200047212
:02047300047310
:0204740004740E
:0204750004750C
:0204760004760A
:02047700047708
:02047800047806
:02047900047904
:02047A00047A02
:02047B00047B00
:02047C00047CFE
:02047D00047DFC
:02047E00047EFA
:02047F00047FF8
:020480000480F6
:020481000481F4
:020482000482F2
:020483000483F0
:020484000484EE
:020485000485EC
:020486000486EA
:020487000487E8
:020488000488E6
:020489000489E4
:02048A00048AE2
:02048B00048BE0
:02048C00048CDE
:02048D00048DDC
:02048E00048EDA
:02048F00048FD8
:020490000490D6
:020491000491D4
:020492000492D2
:020493000493D0
:020494000494CE
:020495000495CC
:020496000496CA
:020497000497C8
:020498000498C6
:020499000499C4
:02049A00049AC2
:02049B00049BC0
:02049C00049CBE
:02049D00049DBC
:02049E00049EBA
:02049F00049FB8
:0204A00004A0B6
:0204A10004A1B4
:0204A20004A2B2
:0204A30004A3B0
:0204A40004A4AE
:0204A50004A5AC
:0204A60004A6AA
:0204A70004A7A8
:0204A80004A8A6
:0204A90004A9A4
:0204AA0004AAA2
:0204AB0004ABA0
:0204AC0004AC9E
:0204AD0004AD9C
:0204AE0004AE9A
:0204AF0004AF98
:0204B00004B096
:0204B10004B194
:0204B20004B292
:0204B30004B390
:0204B40004B48E
:0204B50004B58C
:0204B60004B68A
:0204B70004B788
:0204B80004B886
:0204B90004B984
:0204BA0004BA82
:0204BB0004BB80
:0204BC0004BC7E
:0204BD0004BD7C
:0204BE0004BE7A
:0204BF0004BF78
:0204C00004C076
:0204C10004C174
:0204C20004C272
:0204C30004C370
:0204C40004C46E
:0204C50004C56C
:0204C60004C66A
:0204C70004C768
:0204C80004C866
:0204C90004C964
:0204CA0004CA62
:0204CB0004CB60
:0204CC0004CC5E
:0204CD0004CD5C
:0204CE0004CE5A
:0204CF0004CF58
:0204D00004D056
:0204D10004D154
:0204D20004D252
:0204D30004D350
:0204D40004D44E
:0204D50004D54C
:0204D60004D64A
:0204D70004D748
:0204D80004D846
:0204D90004D944
:0204DA0004DA42
:0204DB0004DB40
:0204DC0004DC3E
:0204DD0004DD3C
:0204DE0004DE3A
:0204DF0004DF38
:0204E00004E036
:0204E10004E134
:0204E20004E232
:0204E30004E330
:0204E40004E42E
:0204E50004E52C
:0204E60004E62A
:0204E70004E728
:0204E80004E826
:0204E90004E924
:0204EA0004EA22
:0204EB0004EB20
:0204EC0004EC1E
:0204ED0004ED1C
:0204EE0004EE1A
:0204EF0004EF18
:0204F00004F016
:0204F10004F114
:0204F20004F212
:0204F30004F310
:0204F40004F40E
:0204F50004F50C
:0204F60004F60A
:0204F70004F708
:0204F80004F806
:0204F90004F904
:0204FA0004FA02
:0204FB0004FB00
:0204FC0004FCFE
:0204FD0004FDFC
:0204FE0004FEFA
:0204FF0004FFF8
:020500000500F4
:020501000501F2
:020502000502F0
:020503000503EE
:020504000504EC
:020505000505EA
:020506000506E8
:020507000507E6
:020508000508E4
:020509000509E2
:02050A00050AE0
:02050B00050BDE
:02050C00050CDC
:02050D00050DDA
:02050E00050ED8
:02050F00050FD6
:020510000510D4
:020511000511D2
:020512000512D0
:020513000513CE
:020514000514CC
:020515000515CA
:020516000516C8
:020517000517C6
:020518000518C4
:020519000519C2
:02051A00051AC0
:02051B00051BBE
:02051C00051CBC
:02051D00051DBA
:02051E00051EB8
:02051F00051FB6
:020520000520B4
:020521000521B2
:020522000522B0
:020523000523AE
:020524000524AC
:020525000525AA
:020526000526A8
:020527000527A6
:020528000528A4
:020529000529A2
:02052A00052AA0
:02052B00052B9E
:02052C00052C9C
:02052D00052D9A
:02052E00052E98
:02052F00052F96
:02053000053094
:02053100053192
:02053200053290
:0205330005338E
:0205340005348C
:0205350005358A
:02053600053688
:02053700053786
:02053800053884
:02053900053982
:02053A00053A80
:02053B00053B7E
:02053C00053C7C
:02053D00053D7A
:02053E00053E78
:02053F00053F76
:02054000054074
:02054100054172
:02054200054270
:0205430005436E
:0205440005446C
:0205450005456A
:02054600054668
:02054700054766
:02054800054864
:02054900054962
:02054A00054A60
:02054B00054B5E
:02054C00054C5C
:02054D00054D5A
:02054E00054E58
:02054F00054F56
:02055000055054
:02055100055152
:02055200055250
:0205530005534E
:0205540005544C
:0205550005554A
:02055600055648
:02055700055746
:02055800055844
:02055900055942
:02055A00055A40
:02055B00055B3E
:02055C00055C3C
:02055D00055D3A
:02055E00055E38
:02055F00055F36
:02056000056034
:02056100056132
:02056200056230
:0205630005632E
:0205640005642C
:0205650005652A
:02056600056628
:02056700056726
:02056800056824
:02056900056922
:02056A00056A20
:02056B00056B1E
:02056C00056C1C
:02056D00056D1A
:02056E00056E18
:02056F00056F16
:02057000057014
:02057100057112
:02057200057210
:0205730005730E
:0205740005740C
:0205750005750A
:02057600057608
:02057700057706
:02057800057804
:02057900057902
:02057A00057A00
:02057B00057BFE
:02057C00057CFC
:02057D00057DFA
:02057E00057EF8
:02057F00057FF6
:020580000580F4
:020581000581F2
:020582000582F0
:020583000583EE
:020584000584EC
:020585000585EA
:020586000586E8
:020587000587E6
:020588000588E4
:020589000589E2
:02058A00058AE0
:02058B00058BDE
:02058C00058CDC
:02058D00058DDA
:02058E00058ED8
:02058F00058FD6
:020590000590D4
:020591000591D2
:020592000592D0
:020593000593CE
:020594000594CC
:020595000595CA
:020596000596C8
:020597000597C6
:020598000598C4
:020599000599C2
:02059A00059AC0
:02059B00059BBE
:02059C00059CBC
:02059D00059DBA
:02059E00059EB8
:02059F00059FB6
:0205A00005A0B4
:0205A10005A1B2
:0205A20005A2B0
:0205A30005A3AE
:0205A40005A4AC
:0205A50005A5AA
:0205A60005A6A8
:0205A70005A7A6
:0205A80005A8A4
:0205A90005A9A2
:0205AA0005AAA0
:0205AB0005AB9E
:0205AC0005AC9C
:0205AD0005AD9A
:0205AE0005AE98
:0205AF0005AF96
:0205B00005B094
:0205B10005B192
:0205B20005B290
:0205B30005B38E
:0205B40005B48C
:0205B50005B58A
:0205B60005B688
:0205B70005B786
:0205B80005B884
:0205B90005B982
:0205BA0005BA80
:0205BB0005BB7E
:0205BC0005BC7C
:0205BD0005BD7A
:0205BE0005BE78
:0205BF0005BF76
:0205C00005C074
:0205C10005C172
:0205C20005C270
:0205C30005C36E
:0205C40005C46C
:0205C50005C56A
:0205C60005C668
:0205C70005C766
:0205C80005C864
:0205C90005C962
:0205CA0005CA60
:0205CB0005CB5E
:0205CC0005CC5C
:0205CD0005CD5A
:0205CE0005CE58
:0205CF0005CF56
:0205D00005D054
:0205D10005D152
:0205D20005D250
:0205D30005D34E
:0205D40005D44C
:0205D50005D54A
:0205D60005D648
:0205D70005D746
:0205D80005D844
:0205D90005D942
:0205DA0005DA40
:0205DB0005DB3E
:0205DC0005DC3C
:0205DD0005DD3A
:0205DE0005DE38
:0205DF0005DF36
:0205E00005E034
:0205E10005E132
:0205E20005E230
:0205E30005E32E
:0205E40005E42C
:0205E50005E52A
:0205E60005E628
:0205E70005E726
:0205E80005E824
:0205E90005E922
:0205EA0005EA20
:0205EB0005EB1E
:0205EC0005EC1C
:0205ED0005ED1A
:0205EE0005EE18
:0205EF0005EF16
:0205F00005F014
:0205F10005F112
:0205F20005F210
:0205F30005F30E
:0205F40005F40C
:0205F50005F50A
:0205F60005F608
:0205F70005F706
:0205F80005F804
:0205F90005F902
:0205FA0005FA00
:0205FB0005FBFE
:0205FC0005FCFC
:0205FD0005FDFA
:0205FE0005FEF8
:0205FF0005FFF6
:020600000600F2
:020601000601F0
:020602000602EE
:020603000603EC
:020604000604EA
:020605000605E8
:020606000606E6
:020607000607E4
:020608000608E2
:020609000609E0
:02060A00060ADE
:02060B00060BDC
:02060C00060CDA
:02060D00060DD8
:02060E00060ED6
:02060F00060FD4
:020610000610D2
:020611000611D0
:020612000612CE
:020613000613CC
:020614000614CA
:020615000615C8
:020616000616C6
:020617000617C4
:020618000618C2
:020619000619C0
:02061A00061ABE
:02061B00061BBC
:02061C00061CBA
:02061D00061DB8
:02061E00061EB6
:02061F00061FB4
:020620000620B2
:020621000621B0
:020622000622AE
:020623000623AC
:020624000624AA
:020625000625A8
:020626000626A6
:020627000627A4
:020628000628A2
:020629000629A0
:02062A00062A9E
:02062B00062B9C
:02062C00062C9A
:02062D00062D98
:02062E00062E96
:02062F00062F94
:02063000063092
:02063100063190
:0206320006328E
:0206330006338C
:0206340006348A
:02063500063588
:02063600063686
:02063700063784
:02063800063882
:02063900063980
:02063A00063A7E
:02063B00063B7C
:02063C00063C7A
:02063D00063D78
:02063E00063E76
:02063F00063F74
:02064000064072
:02064100064170
:0206420006426E
:0206430006436C
:0206440006446A
:02064500064568
:02064600064666
:02064700064764
:02064800064862
:02064900064960
:02064A00064A5E
:02064B00064B5C
:02064C00064C5A
:02064D00064D58
:02064E00064E56
:02064F00064F54
:02065000065052
:02065100065150
:0206520006524E
:0206530006534C
:0206540006544A
:02065500065548
:02065600065646
:02065700065744
:02065800065842
:02065900065940
:02065A00065A3E
:02065B00065B3C
:02065C00065C3A
:02065D00065D38
:02065E00065E36
:02065F00065F34
:02066000066032
:02066100066130
:0206620006622E
:0206630006632C
:0206640006642A
:02066500066528
:02066600066626
:02066700066724
:02066800066822
:02066900066920
:02066A00066A1E
:02066B00066B1C
:02066C00066C1A
:02066D00066D18
:02066E00066E16
:02066F00066F14
:02067000067012
:02067100067110
:0206720006720E
:0206730006730C
:0206740006740A
:02067500067508
:02067600067606
:02067700067704
:02067800067802
:02067900067900
:02067A00067AFE
:02067B00067BFC
:02067C00067CFA
:02067D00067DF8
:02067E00067EF6
:02067F00067FF4
:020680000680F2
:020681000681F0
:020682000682EE
:020683000683EC
:020684000684EA
:020685000685E8
:020686000686E6
:020687000687E4
:020688000688E2
:020689000689E0
:02068A00068ADE
:02068B00068BDC
:02068C00068CDA
:02068D00068DD8
:02068E00068ED6
:02068F00068FD4
:020690000690D2
:020691000691D0
:020692000692CE
:020693000693CC
:020694000694CA
:020695000695C8
:020696000696C6
:020697000697C4
:020698000698C2
:020699000699C0
:02069A00069ABE
:02069B00069BBC
:02069C00069CBA
:02069D00069DB8
:02069E00069EB6
:02069F00069FB4
:0206A00006A0B2
:0206A10006A1B0
:0206A20006A2AE
:0206A30006A3AC
:0206A40006A4AA
:0206A50006A5A8
:0206A60006A6A6
:0206A70006A7A4
:0206A80006A8A2
:0206A90006A9A0
:0206AA0006AA9E
:0206AB0006AB9C
:0206AC0006AC9A
:0206AD0006AD98
:0206AE0006AE96
:0206AF0006AF94
:0206B00006B092
:0206B10006B190
:0206B20006B28E
:0206B30006B38C
:0206B40006B48A
:0206B50006B588
:0206B60006B686
:0206B70006B784
:0206B80006B882
:0206B90006B980
:0206BA0006BA7E
:0206BB0006BB7C
:0206BC0006BC7A
:0206BD0006BD78
:0206BE0006BE76
:0206BF0006BF74
:0206C00006C072
:0206C10006C170
:0206C20006C26E
:0206C30006C36C
:0206C40006C46A
:0206C50006C568
:0206C60006C666
:0206C70006C764
:0206C80006C862
:0206C90006C960
:0206CA0006CA5E
:0206CB0006CB5C
:0206CC0006CC5A
:0206CD0006CD58
:0206CE0006CE56
:0206CF0006CF54
:0206D00006D052
:0206D10006D150
:0206D20006D24E
:0206D30006D34C
:0206D40006D44A
:0206D50006D548
:0206D60006D646
:0206D70006D744
:0206D80006D842
:0206D90006D940
:0206DA0006DA3E
:0206DB0006DB3C
:0206DC0006DC3A
:0206DD0006DD38
:0206DE0006DE36
:0206DF0006DF34
:0206E00006E032
:0206E10006E130
:0206E20006E22E
:0206E30006E32C
:0206E40006E42A
:0206E50006E528
:0206E60006E626
:0206E70006E724
:0206E80006E822
:0206E90006E920
:0206EA0006EA1E
:0206EB0006EB1C
:0206EC0006EC1A
:0206ED0006ED18
:0206EE0006EE16
:0206EF0006EF14
:0206F00006F012
:0206F10006F110
:0206F20006F20E
:0206F30006F30C
:0206F40006F40A
:0206F50006F508
:0206F60006F606
:0206F70006F704
:0206F80006F802
:0206F90006F900
:0206FA0006FAFE
:0206FB0006FBFC
:0206FC0006FCFA
:0206FD0006FDF8
:0206FE0006FEF6
:0206FF0006FFF4
:020700000700F0
:020701000701EE
:020702000702EC
:020703000703EA
:020704000704E8
:020705000705E6
:020706000706E4
:020707000707E2
:020708000708E0
:020709000709DE
:02070A00070ADC
:02070B00070BDA
:02070C00070CD8
:02070D00070DD6
:02070E00070ED4
:02070F00070FD2
:020710000710D0
:020711000711CE
:020712000712CC
:020713000713CA
:020714000714C8
:020715000715C6
:020716000716C4
:020717000717C2
:020718000718C0
:020719000719BE
:02071A00071ABC
:02071B00071BBA
:02071C00071CB8
:02071D00071DB6
:02071E00071EB4
:02071F00071FB2
:020720000720B0
:020721000721AE
:020722000722AC
:020723000723AA
:020724000724A8
:020725000725A6
:020726000726A4
:020727000727A2
:020728000728A0
:0207290007299E
:02072A00072A9C
:02072B00072B9A
:02072C00072C98
:02072D00072D96
:02072E00072E94
:02072F00072F92
:02073000073090
:0207310007318E
:0207320007328C
:0207330007338A
:02073400073488
:02073500073586
:02073600073684
:02073700073782
:02073800073880
:0207390007397E
:02073A00073A7C
:02073B00073B7A
:02073C00073C78
:02073D00073D76
:02073E00073E74
:02073F00073F72
:02074000074070
:0207410007416E
:0207420007426C
:0207430007436A
:02074400074468
:02074500074566
:02074600074664
:02074700074762
:02074800074860
:0207490007495E
:02074A00074A5C
:02074B00074B5A
:02074C00074C58
:02074D00074D56
:02074E00074E54
:02074F00074F52
:02075000075050
:0207510007514E
:0207520007524C
:0207530007534A
:02075400075448
:02075500075546
:02075600075644
:02075700075742
:02075800075840
:0207590007593E
:02075A00075A3C
:02075B00075B3A
:02075C00075C38
:02075D00075D36
:02075E00075E34
:02075F00075F32
:02076000076030
:0207610007612E
:0207620007622C
:0207630007632A
:02076400076428
:02076500076526
:02076600076624
:02076700076722
:02076800076820
:0207690007691E
:02076A00076A1C
:02076B00076B1A
:02076C00076C18
:02076D00076D16
:02076E00076E14
:02076F00076F12
:02077000077010
:0207710007710E
:0207720007720C
:0207730007730A
:02077400077408
:02077500077506
:02077600077604
:02077700077702
:02077800077800
:020779000779FE
:02077A00077AFC
:02077B00077BFA
:02077C00077CF8
:02077D00077DF6
:02077E00077EF4
:02077F00077FF2
:020780000780F0
:020781000781EE
:020782000782EC
:020783000783EA
:020784000784E8
:020785000785E6
:020786000786E4
:020787000787E2
:020788000788E0
:020789000789DE
:02078A00078ADC
:02078B00078BDA
:02078C00078CD8
:02078D00078DD6
:02078E00078ED4
:02078F00078FD2
:020790000790D0
:020791000791CE
:020792000792CC
:020793000793CA
:020794000794C8
:020795000795C6
:020796000796C4
:020797000797C2
:020798000798C0
:020799000799BE
:02079A00079ABC
:02079B00079BBA
:02079C00079CB8
:02079D00079DB6
:02079E00079EB4
:02079F00079FB2
:0207A00007A0B0
:0207A10007A1AE
:0207A20007A2AC
:0207A30007A3AA
:0207A40007A4A8
:0207A50007A5A6
:0207A60007A6A4
:0207A70007A7A2
:0207A80007A8A0
:0207A90007A99E
:0207AA0007AA9C
:0207AB0007AB9A
:0207AC0007AC98
:0207AD0007AD96
:0207AE0007AE94
:0207AF0007AF92
:0207B00007B090
:0207B10007B18E
:0207B20007B28C
:0207B30007B38A
:0207B40007B488
:0207B50007B586
:0207B60007B684
:0207B70007B782
:0207B80007B880
:0207B90007B97E
:0207BA0007BA7C
:0207BB0007BB7A
:0207BC0007BC78
:0207BD0007BD76
:0207BE0007BE74
:0207BF0007BF72
:0207C00007C070
:0207C10007C16E
:0207C20007C26C
:0207C30007C36A
:0207C40007C468
:0207C50007C566
:0207C60007C664
:0207C70007C762
:0207C80007C860
:0207C90007C95E
:0207CA0007CA5C
:0207CB0007CB5A
:0207CC0007CC58
:0207CD0007CD56
:0207CE0007CE54
:0207CF0007CF52
:0207D00007D050
:0207D10007D14E
:0207D20007D24C
:0207D30007D34A
:0207D40007D448
:0207D50007D546
:0207D60007D644
:0207D70007D742
:0207D80007D840
:0207D90007D93E
:0207DA0007DA3C
:0207DB0007DB3A
:0207DC0007DC38
:0207DD0007DD36
:0207DE0007DE34
:0207DF0007DF32
:0207E00007E030
:0207E10007E12E
:0207E20007E22C
:0207E30007E32A
:0207E40007E428
:0207E50007E526
:0207E60007E624
:0207E70007E722
:0207E80007E820
:0207E90007E91E
:0207EA0007EA1C
:0207EB0007EB1A
:0207EC0007EC18
:0207ED0007ED16
:0207EE0007EE14
:0207EF0007EF12
:0207F00007F010
:0207F10007F10E
:0207F20007F20C
:0207F30007F30A
:0207F40007F408
:0207F50007F506
:0207F60007F604
:0207F70007F702
:0207F80007F800
:0207F90007F9FE
:0207FA0007FAFC
:0207FB0007FBFA
:0207FC0007FCF8
:0207FD0007FDF6
:0207FE0007FEF4
:0207FF0007FFF2
:00000001FF
